:100000000C942A000C9447000C9447000C94470071
:100010000C9447000C9447000C941E0A0C94470063
:100020000C9447000C9447000C9475090C944700FD
:100030000C9447000C9447000C9447000C94470024
:100040000C9447000C9447000C9447000C94470014
:100050000C94470011241FBECFE5D8E0DEBFCDBF12
:1000600011E0A0E6B0E0EEE1F9E402C005900D92E7
:10007000A23AB107D9F711E0A2EAB1E001C01D929E
:10008000A13CB107E1F70E94C1190C948D240C9496
:100090000000EF92FF920F931F937B018C0120E0F1
:1000A00030E040E05FE40E94F50388238CF0C80153
:1000B000B70120E030E040E05FE40E94C1010E940F
:1000C00055049B01AC01205030404040504806C0D0
:1000D000C801B7010E9455049B01AC01B901CA01D6
:1000E0001F910F91FF90EF900895A0E0B0E0EBE733
:1000F000F0E00C94DA23DC012B01FA019C919230A0
:1001000008F439C1EB018881823008F433C194309E
:1001100069F4843009F02FC111969C91119789815F
:10012000981709F428C1A9E9B0E025C1843009F481
:1001300021C18230A9F4923009F01DC19A01AD01AC
:1001400088E0EA010990AE01E90109929E0181501F
:10015000C1F7E201898111969C918923818308C1AD
:10016000923009F407C112962D903C901397EB0141
:100170008A819B811496AD90BD90CD90DC901797AD
:10018000EC80FD800E811F819101281B390BB90184
:1001900037FF04C066277727621B730B6032710537
:1001A0000CF061C0121613066CF537014801062EDB
:1001B00004C096948794779467940A94D2F721E0C8
:1001C00030E040E050E004C0220F331F441F551FB1
:1001D0006A95D2F721503040404050402E213F21B7
:1001E00040235123211531054105510521F021E01E
:1001F00030E040E050E079018A01E628F72808293C
:1002000019293CC0232BD1F1260E371E350146019A
:10021000062E04C096948794779467940A94D2F734
:1002200021E030E040E050E004C0220F331F441FC3
:10023000551F6A95D2F721503040404050402A2146
:100240003B214C215D21211531054105510521F04E
:1002500021E030E040E050E059016A01A628B728CB
:10026000C828D9280BC0821593052CF01C01AA249C
:10027000BB24650103C0EE24FF24870111969C91E5
:10028000D20111968C91981709F445C0992339F041
:10029000A80197012A193B094C095D0906C0A6016E
:1002A00095012E193F09400B510B57FD08C01182D3
:1002B0003382228224833583468357831DC081E0A5
:1002C00081833382228288279927DC01821B930B4A
:1002D000A40BB50B84839583A683B7830DC0220F2F
:1002E000331F441F551F24833583468357838281E0
:1002F000938101979383828324813581468157813D
:10030000DA01C9010197A109B1098F5F9F4FAF4F72
:10031000BF4328F30BC0918333822282EA0CFB1C7B
:100320000C1D1D1DE482F5820683178383E0808304
:10033000248135814681578157FF1AC0C901AA27F8
:1003400097FDA095BA2F81709070A070B0705695EF
:10035000479537952795822B932BA42BB52B848318
:100360009583A683B7838281938101969383828349
:10037000DF0101C0D201CD01CDB7DEB7E2E10C94BF
:10038000F623A0E2B0E0E7ECF1E00C94E623698309
:100390007A838B839C832D833E834F835887E9E048
:1003A000EE2EF12CEC0EFD1ECE010196B7010E943F
:1003B00046068E010F5E1F4FCE010596B8010E94C2
:1003C00046068A8991E089278A8BC701B801AE0168
:1003D000475E5F4F0E9475000E947105A096E6E09F
:1003E0000C940224A0E2B0E0E8EFF1E00C94E623E4
:1003F00069837A838B839C832D833E834F835887C5
:10040000F9E0EF2EF12CEC0EFD1ECE010196B701A6
:100410000E9446068E010F5E1F4FCE010596B80161
:100420000E944606C701B801AE01475E5F4F0E94B9
:1004300075000E947105A096E6E00C940224A0E2EB
:10044000B0E0E5E2F2E00C94DA2369837A838B83EF
:100450009C832D833E834F835887CE010196BE0136
:10046000675F7F4F0E944606CE010596BE016F5E14
:100470007F4F0E9446069985923088F089898230A4
:10048000C8F0943019F4823051F404C0843029F457
:10049000923081F489E990E0C6C0923049F420E0BE
:1004A0009A858A89981321E02A87CE010996BBC0D4
:1004B000823049F420E09A858A89981321E02A8BBA
:1004C000CE014196B0C02D843E844F8458886D88FB
:1004D0007E888F88988CEE24FF248701AA24BB2471
:1004E000650140E050E060E070E0E0E0F0E0C10174
:1004F00081709070892BE9F0E60CF71C081D191D1E
:100500009A01AB012A0D3B1D4C1D5D1D80E090E062
:10051000A0E0B0E0E614F7040805190520F481E036
:1005200090E0A0E0B0E0BA01A901480F591F6A1F8E
:100530007B1FAA0CBB1CCC1CDD1C97FE08C081E0F5
:1005400090E0A0E0B0E0A82AB92ACA2ADB2A3196B6
:10055000E032F10549F0660C771C881C991C569412
:10056000479437942794C3CFFA85EA892B893C892D
:100570008B859C85280F391F2E5F3F4F17C0CA01FE
:1005800081709070892B61F016950795F794E79428
:1005900080E090E0A0E0B0E8E82AF92A0A2B1B2BC3
:1005A00076956795579547952F5F3F4F77FDE7CF36
:1005B0000CC0440F551F661F771F17FD4160EE0CDE
:1005C000FF1C001F111F21503040403090E05907A0
:1005D00090E0690790E4790760F32B8F3C8FDB0193
:1005E000CA018F779070A070B07080349105A1051A
:1005F000B10561F447FD0AC0E114F10401051105DC
:1006000029F0405C5F4F6F4F7F4F40781A8EFE1786
:1006100011F081E08A8F4D8F5E8F6F8F78A383E01A
:10062000898FCE0149960E947105A096E2E10C9453
:10063000F623A8E1B0E0EFE1F3E00C94E223698354
:100640007A838B839C832D833E834F835887B9E0C5
:10065000EB2EF12CEC0EFD1ECE010196B7010E948F
:1006600046068E010F5E1F4FCE010596B8010E940F
:1006700046062985223008F47EC03989323010F4CC
:10068000B8017CC08A859A8989278A87243011F02D
:10069000223031F4231709F06EC069E970E06EC0B2
:1006A000343039F41D861E861F86188A1C861B86E8
:1006B00004C0323021F484E08987B7015FC02B8504
:1006C0003C858B899C89281B390B3C872B87ED84C3
:1006D000FE840F851889AD88BE88CF88D88CEA142F
:1006E000FB040C051D0540F4EE0CFF1C001F111F40
:1006F000215030403C872B8720E030E040E050E044
:1007000080E090E0A0E0B0E460E070E0EA14FB0478
:100710000C051D0540F0282B392B4A2B5B2BEA18C2
:10072000FB080C091D09B695A79597958795EE0CC2
:10073000FF1C001F111F6F5F7F4F6F31710531F775
:10074000DA01C9018F779070A070B0708034910584
:10075000A105B10561F427FD0AC0E114F10401050A
:10076000110529F0205C3F4F4F4F5F4F20782D87B8
:100770003E874F87588BBE01675F7F4FCB010E943A
:1007800071056896EAE00C94FE23A8E1B0E0EBEC7A
:10079000F3E00C94E62369837A838B839C832D8317
:1007A0003E834F83588789E0E82EF12CEC0EFD1E26
:1007B000CE010196B7010E9446068E010F5E1F4FC3
:1007C000CE010596B8010E9446068985823040F028
:1007D0008989823028F0C701B8010E94BE0601C095
:1007E0008FEF6896E6E00C940224A8E1B0E0EBEF0E
:1007F000F3E00C94E62369837A838B839C832D83B7
:100800003E834F83588789E0E82EF12CEC0EFD1EC5
:10081000CE010196B7010E9446068E010F5E1F4F62
:10082000CE010596B8010E9446068985823040F0C7
:100830008989823028F0C701B8010E94BE0601C034
:100840008FEF6896E6E00C940224A8E1B0E0EBE2BA
:10085000F4E00C94E62369837A838B839C832D8355
:100860003E834F83588789E0E82EF12CEC0EFD1E65
:10087000CE010196B7010E9446068E010F5E1F4F02
:10088000CE010596B8010E9446068985823040F067
:100890008989823028F0C701B8010E94BE0601C0D4
:1008A00081E06896E6E00C940224ACE0B0E0EBE571
:1008B000F4E00C94EA2369837A838B839C83CE01D2
:1008C0000196BE016B5F7F4F0E9446068D8182308C
:1008D00061F1823050F1843021F48E81882351F10E
:1008E0002EC02F81388537FD20C06E812F31310514
:1008F0001CF06623F9F023C08EE190E0821B930B7D
:1009000029853A854B855C8504C056954795379572
:1009100027958A95D2F76623B1F05095409530958A
:1009200021953F4F4F4F5F4F0EC020E030E040E039
:1009300050E009C02FEF3FEF4FEF5FE704C020E02A
:1009400030E040E050E8B901CA012C96E2E00C9496
:100950000624A8E0B0E0EFEAF4E00C94E2237B0187
:100960008C01611571058105910519F482E0898377
:1009700060C083E089838EE1C82ED12CDC82CB82DB
:10098000ED82FE820F831887C801B7010E942205FD
:10099000FC013197F7FF3BC0222733272E1B3F0B6B
:1009A00057016801022E04C0D694C794B794A79447
:1009B0000A94D2F740E050E060E070E081E090E01F
:1009C000A0E0B0E004C0880F991FAA1FBB1F2A95A2
:1009D000D2F70197A109B1098E219F21A023B1234C
:1009E0000097A105B10521F041E050E060E070E022
:1009F0004A295B296C297D294D835E836F83788723
:100A00008EE190E08E1B9F0B9C838B8312C03097EE
:100A100081F00E2E04C0EE0CFF1C001F111F0A9463
:100A2000D2F7ED82FE820F831887CE1ADF0ADC82AE
:100A3000CB821A82CE0101960E9471052896EAE0C7
:100A40000C94FE23EF92FF920F931F937B018C0176
:100A500080E0E81680E0F80681E0080780E01807EB
:100A600088F48FEFE816F1040105110531F028F044
:100A700088E090E0A0E0B0E017C080E090E0A0E067
:100A8000B0E012C080E0E81680E0F80680E00807D9
:100A900081E0180728F088E190E0A0E0B0E004C011
:100AA00080E190E0A0E0B0E020E230E040E050E003
:100AB000281B390B4A0B5B0B04C016950795F7945E
:100AC000E7948A95D2F7F701EF55FF4F8081281BF5
:100AD000310941095109C9011F910F91FF90EF9010
:100AE0000895DF92EF92FF920F931F93FC01E48031
:100AF000F58006811781D1808081823048F480E0C2
:100B000090E0A0E1B0E0E82AF92A0A2B1B2BA5C04F
:100B1000843009F49FC0823021F4EE24FF24870141
:100B200005C0E114F1040105110519F4E0E0F0E05D
:100B300096C0628173819FEF623879070CF05BC0C9
:100B400022E83FEF261B370B2A3131052CF020E03D
:100B500030E040E050E02AC0B801A701022E04C0F6
:100B600076956795579547950A94D2F781E090E07E
:100B7000A0E0B0E004C0880F991FAA1FBB1F2A95F0
:100B8000D2F70197A109B1098E219F21A023B1239A
:100B90000097A105B10521F081E090E0A0E0B0E070
:100BA0009A01AB01282B392B4A2B5B2BDA01C901A7
:100BB0008F779070A070B07080349105A105B10559
:100BC00039F427FF09C0205C3F4F4F4F5F4F04C0EF
:100BD000215C3F4F4F4F5F4FE0E0F0E02030A0E05E
:100BE0003A07A0E04A07A0E45A0710F0E1E0F0E07D
:100BF00079018A0127C06038710564F5FB01E1586D
:100C0000FF4FD801C7018F779070A070B07080340B
:100C10009105A105B10539F4E7FE0DC080E490E02F
:100C2000A0E0B0E004C08FE390E0A0E0B0E0E80E08
:100C3000F91E0A1F1B1F17FF05C016950795F7948D
:100C4000E794319687E016950795F794E7948A958F
:100C5000D1F705C0EE24FF248701EFEFF0E06E2FFF
:100C6000679566276795902F9F77D794DD24D79453
:100C70008E2F8695492F462B582F5D29B701CA0123
:100C80001F910F91FF90EF90DF900895FC01DB0121
:100C9000408151812281622F6F7770E0221F2227CD
:100CA000221F9381892F880F822B282F30E0991FD4
:100CB0009927991F11969C93119721153105A9F534
:100CC000411551056105710511F482E037C082E8D4
:100CD0009FEF13969C938E9312979A01AB0167E056
:100CE000220F331F441F551F6A95D1F783E08C9361
:100CF0000DC0220F331F441F551F12968D919C91DA
:100D00001397019713969C938E931297203080E04F
:100D1000380780E0480780E4580758F314962D936D
:100D20003D934D935C93179708952F3F310579F4C8
:100D3000411551056105710519F484E08C930895FE
:100D400064FF03C081E08C9312C01C9210C02F5727
:100D5000304013963C932E93129783E08C9387E058
:100D6000440F551F661F771F8A95D1F7706414963C
:100D70004D935D936D937C93179708951F93DC01BA
:100D8000FB019C91923008F447C08081823008F4C6
:100D900043C0943051F411961C91843099F58181AF
:100DA000682F70E0611B71093FC0843021F09230E0
:100DB00031F48230B9F18181882389F12DC01196F7
:100DC0001C9111978230F1F081811817D9F4129695
:100DD0002D913C911397828193818217930794F010
:100DE00028173907BCF014968D919D910D90BC91F8
:100DF000A02D2481358146815781281739074A075C
:100E00005B0718F4112341F00AC082179307A40767
:100E1000B50740F4112319F061E070E005C06FEFF1
:100E20007FEF02C060E070E0CB011F910895DF9377
:100E3000CF93CDB7DEB7AFE4B0E0EFE4F0E0808170
:100E40008E7F8C93AFE4B0E0EFE4F0E080818260CD
:100E50008C93AEE4B0E0EEE4F0E0808188608C93A7
:100E6000AEE4B0E0EEE4F0E0808180618C93AFE42A
:100E7000B0E0EFE4F0E0808180688C93AFE4B0E014
:100E8000EFE4F0E080818F7B8C9383E065E041E0CC
:100E90000E94B70C83E064E041E00E94B70CAFE42D
:100EA000B0E0EFE4F0E0808180628C93AFE4B0E0EA
:100EB000EFE4F0E080818F7E8C930E948816CF91C2
:100EC000DF9108950F931F93DF93CF9300D0CDB799
:100ED000DEB79A83898306E410E089819A81002431
:100EE000969587950794969587950794982F802DCA
:100EF0009C0140E050E080E094E2A4EFB0E0BC014F
:100F0000CD010E948923DA01C901F8019183808310
:100F1000E6E4F0E0808191810E94AD180F900F907F
:100F2000CF91DF911F910F910895DF93CF9300D060
:100F3000CDB7DEB79A838983EAE4F0E089819A81AC
:100F4000918380830F900F90CF91DF910895DF936D
:100F5000CF9300D0CDB7DEB79A838983E8E4F0E081
:100F600089819A81918380830F900F90CF91DF9137
:100F70000895DF93CF93CDB7DEB7AEE4B0E0EEE4F3
:100F8000F0E0808183608C93CF91DF910895DF93AF
:100F9000CF93CDB7DEB7AEE4B0E0EEE4F0E0808111
:100FA000887F8C93CF91DF910895DF93CF93CDB756
:100FB000DEB7E3E5F0E01082A9E5B0E0E9E5F0E0B6
:100FC000808181608C93CF91DF910895DF93CF93DF
:100FD000CDB7DEB7A3E5B0E0E3E5F0E08081887F40
:100FE0008C93A3E5B0E0E3E5F0E0808181608C9331
:100FF000CF91DF910895DF93CF93CDB7DEB7A3E50F
:10100000B0E0E3E5F0E08081887F8C93CF91DF91C1
:101010000895EF92FF920F931F93DF93CF93CDB775
:10102000DEB762970FB6F894DEBF0FBECDBF9A8BC6
:10103000898B19821A821B821C828FE692E1A3E8B7
:10104000BDE38D839E83AF83B8878FE692E1A3E8EB
:10105000B1E489879A87AB87BC8789899A89CC0153
:10106000A0E0B0E0BC01CD010E94A904DC01CB01ED
:10107000BC01CD0129853A854B855C850E942504FC
:10108000882354F589899A89CC01A0E0B0E0BC019D
:10109000CD010E94A9049B01AC0169857A858B85ED
:1010A0009C850E94C101DC01CB01BC01CD012D81D9
:1010B0003E814F8158850E941903DC01CB01BC01A0
:1010C000CD010E944900DC01CB019E878D8781E024
:1010D00090E0988B8F8772C069857A858B859C8517
:1010E0000E945504DC01CB019C0189899A8928174B
:1010F000390739F41E861D8681E090E0988B8F8732
:101100005DC089899A89CC01A0E0B0E0BC01CD0125
:101110000E94A904DC01CB01BC01CD0129853A85DF
:101120004B855C850E941903DC01CB01BC01CD011C
:101130000E941124DC01CB01BC01CD010E944900B9
:10114000DC01CB01988B8F8789899A89CC01A0E03B
:10115000B0E0BC01CD010E94A904DC01CB01BC01BF
:10116000CD012D813E814F8158850E941903DC01FC
:10117000CB017C018D018F859889CC01A0E0B0E086
:10118000BC01CD010E94A9049B01AC01C801B701BB
:101190000E941903DC01CB019C01AD0160E070E00D
:1011A00080E893E40E94C101DC01CB01BC01CD01C8
:1011B0000E944900DC01CB019E878D878F8598892D
:1011C0000E94AD188D859E850E94AD18E2E5F0E085
:1011D0008D8580830E94E6071BC0E8E5F0E08081F2
:1011E000882F90E0817090700097B9F3A8E5B0E087
:1011F000E8E5F0E0808181608C9389819A81AB8100
:10120000BC810196A11DB11D89839A83AB83BC83E8
:101210008F8598899C0140E050E089819A81AB815B
:10122000BC8182179307A407B507B8F2E3E5F0E0A5
:10123000108262960FB6F894DEBF0FBECDBFCF917D
:10124000DF911F910F91FF90EF900895DF93CF935F
:1012500000D0CDB7DEB79A83898389819A81909334
:10126000A3018093A2010F900F90CF91DF91089579
:10127000DF93CF93CDB7DEB7A3E5B0E0E3E5F0E0D1
:10128000808188608C93A3E5B0E0E3E5F0E08081A5
:1012900080648C93A3E5B0E0E3E5F0E080818062B8
:1012A0008C93CF91DF910895DF93CF930F92CDB7B9
:1012B000DEB789838981853610F084E689830F90B3
:1012C000CF91DF910895DF93CF93CDB7DEB70E9422
:1012D000E607CF91DF910895DF93CF93CDB7DEB7C7
:1012E0000E94FB07CF91DF9108951F920F920FB6D6
:1012F0000F9211242F933F934F935F936F937F939C
:101300008F939F93AF93BF93EF93FF93DF93CF930D
:10131000CDB7DEB78091A9019091AA01A091AB0150
:10132000B091AC010196A11DB11D8093A9019093CC
:10133000AA01A093AB01B093AC018091A40190915C
:10134000A501009709F467C08091A9019091AA01B5
:10135000A091AB01B091AC0181309105A105B1051F
:1013600039F58091A6019091A7019C0140E050E0E1
:101370008091A9019091AA01A091AB01B091AC011B
:10138000281739074A075B0799F4E091A401F09107
:10139000A50109951092A9011092AA011092AB0122
:1013A0001092AC01ECE5F0E08091A801808333C09D
:1013B0008091A9019091AA01A091AB01B091AC01DB
:1013C00081309105A105B10529F4ECE5F0E08FEF3E
:1013D000808321C08091A6019091A7019C0140E0EB
:1013E00050E08091A9019091AA01A091AB01B09128
:1013F000AC01281739074A075B0769F41092A90165
:101400001092AA011092AB011092AC01ECE5F0E051
:101410008091A8018083CF91DF91FF91EF91BF91DF
:10142000AF919F918F917F916F915F914F913F917C
:101430002F910F900FBE0F901F9018951F920F9233
:101440000FB60F9211242F933F934F935F936F9397
:101450007F938F939F93AF93BF93EF93FF93DF930C
:10146000CF93CDB7DEB78091AD019091AE010097DB
:1014700029F0E091AD01F091AE010995CF91DF9196
:10148000FF91EF91BF91AF919F918F917F916F915C
:101490005F914F913F912F910F900FBE0F901F9032
:1014A0001895DF93CF9300D0CDB7DEB79A838983A9
:1014B00083E066E040E00E94B70CEFE4F0E08CE0EF
:1014C0008083AEE4B0E0EEE4F0E08081982F987F76
:1014D000E981FA818081892B8C93AEE4B0E0EEE45F
:1014E000F0E08081282F2F7BE981FA818181882F8C
:1014F00090E0002496958795079496958795079494
:10150000982F802D822B8C93ECE4F0E011821082D6
:10151000E6E4F0E011821082A9E5B0E0E9E5F0E050
:10152000808180628C930F900F90CF91DF9108950E
:10153000DF93CF9300D0CDB7DEB79A8389838981BB
:101540009A819093AE018093AD010F900F90CF914F
:10155000DF910895DF93CF930F92CDB7DEB78983E4
:10156000AEE4B0E0EEE4F0E08081282F2F7B8981AB
:10157000882F90E0002496958795079496958795F7
:101580000794982F802D822B8C930F90CF91DF9111
:101590000895DF93CF93CDB7DEB7E6E4F0E0808126
:1015A0009181CF91DF910895DF93CF93CDB7DEB7CF
:1015B000ECE4F0E011821082CF91DF910895DF9387
:1015C000CF93CDB7DEB7EFE4F0E01082EEE4F0E0C9
:1015D0001082ECE4F0E011821082E6E4F0E0118287
:1015E0001082A9E5B0E0E9E5F0E080818F7D8C9381
:1015F000CF91DF910895DF93CF93CDB7DEB7AFE5FD
:10160000B0E0EFE5F0E0808180688C93CF91DF91CE
:101610000895DF93CF93CDB7DEB7AFE5B0E0EFE548
:10162000F0E080818F778C93CF91DF910895DF93E5
:10163000CF93CDB7DEB7ABE5B0E0EBE5F0E080816E
:1016400080648C93A5E5B0E0E5E5F0E080818C7FD7
:101650008C93A5E5B0E0E5E5F0E0808181608C93B6
:10166000ABE5B0E0EBE5F0E0808180688C93A5E528
:10167000B0E0E5E5F0E08081837F8C93A5E5B0E004
:10168000E5E5F0E0808188608C93ABE5B0E0EBE5C8
:10169000F0E0808180628C93A4E5B0E0E4E5F0E0C6
:1016A00080818F7B8C93A4E5B0E0E4E5F0E080815D
:1016B00080648C93CF91DF910895DF93CF93CDB762
:1016C000DEB728970FB6F894DEBF0FBECDBF898373
:1016D0006A8389818823D1F5A5E5B0E0E5E5F0E0EE
:1016E00080818C7F8C938A81282F30E038872F83EC
:1016F0008F8198858232910589F02F813885233238
:10170000310534F48F8198858A30910579F07BC05A
:101710002F8138852934310589F075C0A5E5B0E001
:10172000E5E5F0E0808181608C936DC0A5E5B0E0D7
:10173000E5E5F0E0808182608C9365C0A5E5B0E0CE
:10174000E5E5F0E0808183608C935DC08981813024
:10175000D1F5A5E5B0E0E5E5F0E08081837F8C93ED
:101760008A81282F30E03E832D838D819E818232B5
:10177000910589F02D813E812332310534F48D812C
:101780009E818A30910579F03EC02D813E812934B9
:10179000310589F038C0A5E5B0E0E5E5F0E08081ED
:1017A00084608C9330C0A5E5B0E0E5E5F0E0808191
:1017B00088608C9328C0A5E5B0E0E5E5F0E0808185
:1017C0008C608C9320C089818230E9F4A4E5B0E07C
:1017D000E4E5F0E080818F7B8C938A81282F30E0D4
:1017E0003C832B838B819C818A30910561F02B8116
:1017F0003C812934310539F4A4E5B0E0E4E5F0E0BA
:10180000808180648C9328960FB6F894DEBF0FBE5B
:10181000CDBFCF91DF910895DF93CF9300D00F928A
:10182000CDB7DEB789838981282F30E03B832A83B7
:101830008A819B818130910589F02A813B81223008
:101840003105A1F08A819B810097B9F4ABE5B0E046
:10185000EBE5F0E0808180648C930FC0ABE5B0E0F5
:10186000EBE5F0E0808180688C9307C0ABE5B0E0E9
:10187000EBE5F0E0808180628C930F900F900F90E9
:10188000CF91DF910895DF93CF9300D00F92CDB722
:10189000DEB789838981282F30E03B832A838A81C0
:1018A0009B818130910589F02A813B81223031056D
:1018B000A1F08A819B810097B9F4ABE5B0E0EBE53C
:1018C000F0E080818F7B8C930FC0ABE5B0E0EBE55F
:1018D000F0E080818F778C9307C0ABE5B0E0EBE55B
:1018E000F0E080818F7D8C930F900F900F90CF91BF
:1018F000DF910895DF93CF9300D000D00F92CDB742
:10190000DEB79A8389836B8389819A81009739F145
:101910008B81282F30E03D832C838C819D81813009
:10192000910581F02C813D812230310591F08C812F
:101930009D810097A1F489819A819093B001809351
:10194000AF010DC089819A819093B2018093B1015A
:1019500006C089819A819093B4018093B3010F905E
:101960000F900F900F900F90CF91DF910895DF931C
:10197000CF9300D000D00F92CDB7DEB789836A83B2
:101980004B838981843008F0CEC08A81883008F08A
:10199000CAC08B81823008F0C6C08981282F30E010
:1019A0003D832C836C817D816130710509F441C0D8
:1019B0008C819D818230910534F42C813D812115EB
:1019C000310571F0B0C06C817D816230710509F420
:1019D00059C08C819D818330910509F47CC0A3C0DE
:1019E000AAE3B0E0EAE3F0E08081482F8A81282F63
:1019F00030E081E090E002C0880F991F2A95E2F75D
:101A0000809584238C93AAE3B0E0EAE3F0E0808140
:101A1000482F8B81282F30E08A81882F90E0B901F0
:101A200002C0660F771F8A95E2F7CB01842B8C9357
:101A30007AC0A7E3B0E0E7E3F0E08081482F8A8135
:101A4000282F30E081E090E002C0880F991F2A958E
:101A5000E2F7809584238C93A7E3B0E0E7E3F0E01E
:101A60008081482F8B81282F30E08A81882F90E059
:101A7000B90102C0660F771F8A95E2F7CB01842B6C
:101A80008C9351C0A4E3B0E0E4E3F0E08081482F00
:101A90008A81282F30E081E090E002C0880F991FF2
:101AA0002A95E2F7809584238C93A4E3B0E0E4E3E5
:101AB000F0E08081482F8B81282F30E08A81882FA9
:101AC00090E0B90102C0660F771F8A95E2F7CB015B
:101AD000842B8C9328C0A1E3B0E0E1E3F0E08081A7
:101AE000482F8A81282F30E081E090E002C0880FE3
:101AF000991F2A95E2F7809584238C93A1E3B0E0A7
:101B0000E1E3F0E08081482F8B81282F30E08A814B
:101B1000882F90E0B90102C0660F771F8A95E2F71F
:101B2000CB01842B8C930F900F900F900F900F9000
:101B3000CF91DF910895DF93CF9300D000D00F9223
:101B4000CDB7DEB789836A834B838981843008F0FF
:101B5000CAC08A81883008F0C6C08981282F30E049
:101B60003D832C836C817D816130710509F441C016
:101B70008C819D818230910534F42C813D81211529
:101B8000310571F0B0C06C817D816230710509F45E
:101B900059C08C819D818330910509F47CC0A3C01C
:101BA000ABE3B0E0EBE3F0E08081482F8A81282F9F
:101BB00030E081E090E002C0880F991F2A95E2F79B
:101BC000809584238C93ABE3B0E0EBE3F0E080817D
:101BD000482F8B81282F30E08A81882F90E0B9012F
:101BE00002C0660F771F8A95E2F7CB01842B8C9396
:101BF0007AC0A8E3B0E0E8E3F0E08081482F8A8172
:101C0000282F30E081E090E002C0880F991F2A95CC
:101C1000E2F7809584238C93A8E3B0E0E8E3F0E05A
:101C20008081482F8B81282F30E08A81882F90E097
:101C3000B90102C0660F771F8A95E2F7CB01842BAA
:101C40008C9351C0A5E3B0E0E5E3F0E08081482F3C
:101C50008A81282F30E081E090E002C0880F991F30
:101C60002A95E2F7809584238C93A5E3B0E0E5E321
:101C7000F0E08081482F8B81282F30E08A81882FE7
:101C800090E0B90102C0660F771F8A95E2F7CB0199
:101C9000842B8C9328C0A2E3B0E0E2E3F0E08081E3
:101CA000482F8A81282F30E081E090E002C0880F21
:101CB000991F2A95E2F7809584238C93A2E3B0E0E4
:101CC000E2E3F0E08081482F8B81282F30E08A8189
:101CD000882F90E0B90102C0660F771F8A95E2F75E
:101CE000CB01842B8C930F900F900F900F900F903F
:101CF000CF91DF910895DF93CF9300D000D0CDB77F
:101D0000DEB789836A838981843008F072C08A8152
:101D1000883008F06EC08981282F30E03C832B8307
:101D20008B819C818130910549F12B813C8122304E
:101D300031052CF48B819C81009761F05AC02B8176
:101D40003C812230310571F18B819C81833091057A
:101D5000E9F14FC0ABE3B0E0EBE3F0E08081482F66
:101D60008A81282F30E081E090E0022E02C0880FA7
:101D7000991F0A94E2F784278C933BC0A8E3B0E054
:101D8000E8E3F0E08081482F8A81282F30E081E06D
:101D900090E0022E02C0880F991F0A94E2F7842770
:101DA0008C9327C0A5E3B0E0E5E3F0E08081482F05
:101DB0008A81282F30E081E090E0022E02C0880F57
:101DC000991F0A94E2F784278C9313C0A2E3B0E032
:101DD000E2E3F0E08081482F8A81282F30E081E023
:101DE00090E0022E02C0880F991F0A94E2F7842720
:101DF0008C930F900F900F900F90CF91DF910895DB
:101E0000DF93CF9300D000D000D0CDB7DEB7898369
:101E10006A835C834B838981843008F074C08A8133
:101E2000883008F070C08981282F30E03E832D83F0
:101E30004D815E814130510559F18D819E81823005
:101E4000910534F42D813E812115310569F05BC087
:101E50004D815E814230510579F18D819E818330C3
:101E6000910509F43DC04FC0E9E3F0E08081282FDF
:101E700030E08A81882F90E0A90102C055954795EE
:101E80008A95E2F7CA018170EB81FC8180833BC0B7
:101E9000E6E3F0E08081282F30E08A81882F90E00F
:101EA000A90102C0559547958A95E2F7CA0181704C
:101EB000EB81FC81808327C0E3E3F0E08081282F61
:101EC00030E08A81882F90E0A90102C0559547959E
:101ED0008A95E2F7CA018170EB81FC81808313C08F
:101EE000E0E3F0E08081282F30E08A81882F90E0C5
:101EF000A90102C0559547958A95E2F7CA018170FC
:101F0000EB81FC81808326960FB6F894DEBF0FBE6E
:101F1000CDBFCF91DF910895DF93CF9300D000D054
:101F20000F92CDB7DEB78A836B8319828A818430A2
:101F300008F06BC08B81883008F067C08A81282F39
:101F400030E03D832C834C815D814130510541F16E
:101F50008C819D818230910534F42C813D81211545
:101F6000310561F052C04C815D814230510551F123
:101F70008C819D8183309105B9F147C0E9E3F0E0A0
:101F80008081282F30E08B81882F90E0A90102C04A
:101F9000559547958A95E2F7CA018170898335C0C6
:101FA000E6E3F0E08081282F30E08B81882F90E0FD
:101FB000A90102C0559547958A95E2F7CA0181703B
:101FC000898323C0E3E3F0E08081282F30E08B8118
:101FD000882F90E0A90102C0559547958A95E2F7B0
:101FE000CA018170898311C0E0E3F0E08081282F6D
:101FF00030E08B81882F90E0A90102C0559547956C
:102000008A95E2F7CA018170898389810F900F90C8
:102010000F900F900F90CF91DF910895DF93CF93A2
:10202000CDB7DEB78091B5018F5F8093B501809108
:10203000B501813031F40E94D40A80E00E94AA0ADE
:1020400011C08091B501823069F40E94C90A909351
:10205000B7018093B6011092B5010E94D40A81E0C5
:102060000E94AA0ACF91DF910895DF93CF9300D009
:10207000CDB7DEB782E0898381E08A838EE090E18C
:102080000E94980ACE0101960E94510A82E060E007
:1020900041E00E94B70C0F900F90CF91DF9108950F
:1020A000DF93CF93CDB7DEB768970FB6F894DEBF56
:1020B0000FBECDBF82E060E041E00E949B0D80E05A
:1020C00090E0A0E2B1E48D8B9E8BAF8BB88F6D89D1
:1020D0007E898F89988D2BEA3AEA4AEA50E40E9479
:1020E0001F02DC01CB01898B9A8BAB8BBC8B69897E
:1020F0007A898B899C8920E030E040E85FE30E9488
:10210000250488231CF481E0888B91C069897A8931
:102110008B899C8920E030E04FE753E40E94C5039F
:1021200018160CF07BC06D897E898F89988D20E010
:1021300030E04AE754E40E941903DC01CB018C87AC
:102140009D87AE87BF876C857D858E859F8520E0C6
:1021500030E04AE755E40E941F02DC01CB0188878A
:102160009987AA87BB87688579858A859B8520E0C2
:1021700030E040E85FE30E94250488232CF481E0EE
:1021800090E09F838E833FC0688579858A859B8593
:1021900020E03FEF4FE757E40E94C50318164CF5C7
:1021A0006C857D858E859F8520E030E040E251E49E
:1021B0000E941F02DC01CB01BC01CD010E9449003D
:1021C000DC01CB019F838E830FC080E991E09D836A
:1021D0008C838C819D810197F1F79D838C838E8107
:1021E0009F8101979F838E838E819F81009769F7DE
:1021F00024C0688579858A859B850E944900DC0119
:10220000CB019F838E838E819F819B838A838A816A
:102210009B810197F1F79B838A830FC069897A8933
:102220008B899C890E944900DC01CB01888B8889BD
:10223000898389818A95F1F7898382E060E040E0B3
:102240000E949B0D68960FB6F894DEBF0FBECDBFFF
:10225000CF91DF910895DF93CF93CDB7DEB70E9482
:1022600050108091B6019091B701CC01A0E0B0E090
:10227000BC01CD010E94A904DC01CB01BC01CD0150
:1022800028E431EE45E652E40E941903DC01CB015B
:10229000BC01CD010E944900DC01CB019093B90142
:1022A0008093B8018091B8019091B9019695879576
:1022B0009093B9018093B8018091B8019091B901D0
:1022C000CF91DF910895DF93CF93CDB7DEB70E9412
:1022D000170782E390E00E9462070E94B907CF913E
:1022E000DF910895DF93CF93CDB7DEB7E8970FB6B0
:1022F000F894DEBF0FBECDBF87E890E00E9495073F
:1023000080E090E0AAE7B4E48DAB9EABAFABB8AF92
:102310006DA97EA98FA998AD20E030E04AE755E489
:102320000E941F02DC01CB0189AB9AABABABBCAB0B
:1023300069A97AA98BA99CA920E030E040E85FE375
:102340000E94250488232CF481E090E098AB8FA7AD
:102350003FC069A97AA98BA99CA920E03FEF4FE76C
:1023600057E40E94C50318164CF56DA97EA98FA9E4
:1023700098AD20E030E040E251E40E941F02DC0111
:10238000CB01BC01CD010E944900DC01CB0198AB1F
:102390008FA70FC080E991E09EA78DA78DA59EA570
:1023A0000197F1F79EA78DA78FA598A9019798ABE4
:1023B0008FA78FA598A9009769F714C069A97AA972
:1023C0008BA99CA90E944900DC01CB0198AB8FA787
:1023D0008FA598A99CA78BA78BA59CA50197F1F722
:1023E0009CA78BA781E891E00E94950780E090E090
:1023F000AAE7B4E48FA398A7A9A7BAA76FA178A565
:1024000089A59AA520E030E04AE755E40E941F0222
:10241000DC01CB018BA39CA3ADA3BEA36BA17CA1CC
:102420008DA19EA120E030E040E85FE30E942504FA
:1024300088232CF481E090E09AA389A33FC06BA18C
:102440007CA18DA19EA120E03FEF4FE757E40E94C1
:10245000C50318164CF56FA178A589A59AA520E0AB
:1024600030E040E251E40E941F02DC01CB01BC01DC
:10247000CD010E944900DC01CB019AA389A30FC0C2
:1024800080E991E098A38F8F8F8D98A10197F1F744
:1024900098A38F8F89A19AA101979AA389A389A153
:1024A0009AA1009769F714C06BA17CA18DA19EA190
:1024B0000E944900DC01CB019AA389A389A19AA1BA
:1024C0009E8F8D8F8D8D9E8D0197F1F79E8F8D8FB5
:1024D0008BE792E00E94950780E090E0AAE7B4E4E1
:1024E000898F9A8FAB8FBC8F698D7A8D8B8D9C8DE8
:1024F00020E030E04AE755E40E941F02DC01CB01F6
:102500008D8B9E8BAF8BB88F6D897E898F89988DCF
:1025100020E030E040E85FE30E94250488232CF4AB
:1025200081E090E09C8B8B8B3FC06D897E898F8989
:10253000988D20E03FEF4FE757E40E94C50318163F
:102540004CF5698D7A8D8B8D9C8D20E030E040E2DA
:1025500051E40E941F02DC01CB01BC01CD010E94AD
:102560004900DC01CB019C8B8B8B0FC080E991E093
:102570009A8B898B89899A890197F1F79A8B898B34
:102580008B899C8901979C8B8B8B8B899C8900976D
:1025900069F714C06D897E898F89988D0E944900E2
:1025A000DC01CB019C8B8B8B8B899C89988B8F87D3
:1025B0008F8598890197F1F7988B8F8781E891E053
:1025C0000E94950780E090E0AAE7B4E48B879C879F
:1025D000AD87BE876B857C858D859E8520E030E04C
:1025E0004AE755E40E941F02DC01CB018F839887E4
:1025F000A987BA876F81788589859A8520E030E040
:1026000040E85FE30E94250488232CF481E090E0F9
:102610009E838D833FC06F81788589859A8520E070
:102620003FEF4FE757E40E94C50318164CF56B8542
:102630007C858D859E8520E030E040E251E40E945B
:102640001F02DC01CB01BC01CD010E944900DC016D
:10265000CB019E838D830FC080E991E09C838B83A7
:102660008B819C810197F1F79C838B838D819E8167
:1026700001979E838D838D819E81009769F714C099
:102680006F81788589859A850E944900DC01CB019C
:102690009E838D838D819E819A83898389819A818E
:1026A0000197F1F79A838983E8960FB6F894DEBF15
:1026B0000FBECDBFCF91DF910895DF93CF93CDB7FC
:1026C000DEB78BE792E00E949507CF91DF910895E6
:1026D000DF93CF93CDB7DEB787E890E00E949507F0
:1026E000CF91DF910895DF93CF93CDB7DEB781E827
:1026F00091E00E949507CF91DF910895DF93CF93EA
:10270000CDB7DEB70E94C707CF91DF910895DF9361
:10271000CF93CDB7DEB782E062E041E00E94B70C14
:1027200082E063E041E00E94B70C82E064E041E0B7
:102730000E94B70C82E065E041E00E94B70C82E0A5
:1027400066E041E00E94B70C82E067E041E00E9451
:10275000B70C82E062E041E00E949B0D82E063E002
:1027600041E00E949B0DCF91DF910895DF93CF93BD
:10277000CDB7DEB782E066E041E00E949B0D82E0CB
:1027800067E040E00E949B0D82E064E040E00E9430
:102790009B0D82E065E041E00E949B0DCF91DF91AF
:1027A0000895DF93CF93CDB7DEB782E066E040E0D7
:1027B0000E949B0D82E067E041E00E949B0D82E059
:1027C00064E041E00E949B0D82E065E040E00E94F1
:1027D0009B0DCF91DF910895DF93CF93CDB7DEB7F7
:1027E00082E064E041E00E949B0D82E065E040E011
:1027F0000E949B0D82E064E040E00E949B0D82E01D
:1028000065E041E00E949B0DCF91DF910895DF9339
:10281000CF93CDB7DEB782E066E040E00E949B0D2B
:1028200082E067E041E00E949B0D82E064E040E0CE
:102830000E949B0D82E065E041E00E949B0DCF91DC
:10284000DF910895DF93CF93CDB7DEB782E064E0E8
:1028500040E00E949B0D82E065E040E00E949B0DFD
:1028600082E066E040E00E949B0D82E067E040E08D
:102870000E949B0DCF91DF910895DF93CF93CDB749
:10288000DEB7E9970FB6F894DEBF0FBECDBF89AFB4
:1028900081E062E040E00E949B0D81E063E040E067
:1028A0000E949B0D89AD982F991F9927991F80E051
:1028B00067E0492F0E949B0D89AD8295869586958C
:1028C0008370982F917080E066E0492F0E949B0DE5
:1028D00089AD829586958770982F917080E065E02C
:1028E000492F0E949B0D89AD82958F70982F917012
:1028F00080E064E0492F0E949B0D81E063E041E0AD
:102900000E949B0D80E090E0A0E8BFE38DAB9EAB02
:10291000AFABB8AF6DA97EA98FA998AD20E030E02C
:102920004AE755E40E941F02DC01CB0189AB9AAB58
:10293000ABABBCAB69A97AA98BA99CA920E030E01C
:1029400040E85FE30E94250488232CF481E090E0B6
:1029500098AB8FA73FC069A97AA98BA99CA920E051
:102960003FEF4FE757E40E94C50318164CF56DA9D9
:102970007EA98FA998AD20E030E040E251E40E94AA
:102980001F02DC01CB01BC01CD010E944900DC012A
:10299000CB0198AB8FA70FC080E991E09EA78DA7D0
:1029A0008DA59EA50197F1F79EA78DA78FA598A944
:1029B000019798AB8FA78FA598A9009769F714C0C6
:1029C00069A97AA98BA99CA90E944900DC01CB01C5
:1029D00098AB8FA78FA598A99CA78BA78BA59CA523
:1029E0000197F1F79CA78BA781E063E040E00E948C
:1029F0009B0D80E090E0A0E0B0E48FA398A7A9A78A
:102A0000BAA76FA178A589A59AA520E030E04AE78A
:102A100055E40E941F02DC01CB018BA39CA3ADA354
:102A2000BEA36BA17CA18DA19EA120E030E040E877
:102A30005FE30E94250488232CF481E090E09AA3B0
:102A400089A33FC06BA17CA18DA19EA120E03FEF97
:102A50004FE757E40E94C50318164CF56FA178A5FF
:102A600089A59AA520E030E040E251E40E941F02CF
:102A7000DC01CB01BC01CD010E944900DC01CB018E
:102A80009AA389A30FC080E991E098A38F8F8F8DBF
:102A900098A10197F1F798A38F8F89A19AA1019727
:102AA0009AA389A389A19AA1009769F714C06BA181
:102AB0007CA18DA19EA10E944900DC01CB019AA3BB
:102AC00089A389A19AA19E8F8D8F8D8D9E8D01974F
:102AD000F1F79E8F8D8F89AD869586958695982F77
:102AE000917080E067E0492F0E949B0D89AD86952B
:102AF0008695982F917080E066E0492F0E949B0D8B
:102B000089AD8695982F917080E065E0492F0E94ED
:102B10009B0D89AD982F917080E064E0492F0E9451
:102B20009B0D81E063E041E00E949B0D80E090E01E
:102B3000A0E8BFE3898F9A8FAB8FBC8F698D7A8DA8
:102B40008B8D9C8D20E030E04AE755E40E941F0207
:102B5000DC01CB018D8B9E8BAF8BB88F6D897E890D
:102B60008F89988D20E030E040E85FE30E942504E3
:102B700088232CF481E090E09C8B8B8B3FC06D8987
:102B80007E898F89988D20E03FEF4FE757E40E94C0
:102B9000C50318164CF5698D7A8D8B8D9C8D20E0C0
:102BA00030E040E251E40E941F02DC01CB01BC0195
:102BB000CD010E944900DC01CB019C8B8B8B0FC0A7
:102BC00080E991E09A8B898B89899A890197F1F73D
:102BD0009A8B898B8B899C8901979C8B8B8B8B899A
:102BE0009C89009769F714C06D897E898F89988DBB
:102BF0000E944900DC01CB019C8B8B8B8B899C89CB
:102C0000988B8F878F8598890197F1F7988B8F879D
:102C100081E063E040E00E949B0D80E090E0A0E056
:102C2000B0E48B879C87AD87BE876B857C858D855F
:102C30009E8520E030E04AE755E40E941F02DC0157
:102C4000CB018F839887A987BA876F81788589851B
:102C50009A8520E030E040E85FE30E942504882365
:102C60002CF481E090E09E838D833FC06F81788556
:102C700089859A8520E03FEF4FE757E40E94C5031E
:102C800018164CF56B857C858D859E8520E030E09F
:102C900040E251E40E941F02DC01CB01BC01CD01E6
:102CA0000E944900DC01CB019E838D830FC080E927
:102CB00091E09C838B838B819C810197F1F79C83AE
:102CC0008B838D819E8101979E838D838D819E81D3
:102CD000009769F714C06F81788589859A850E946D
:102CE0004900DC01CB019E838D838D819E819A8377
:102CF000898389819A810197F1F79A838983E9967B
:102D00000FB6F894DEBF0FBECDBFCF91DF9108950F
:102D1000DF93CF93CDB7DEB76C970FB6F894DEBFD5
:102D20000FBECDBF81E061E041E00E94B70C81E0C1
:102D300062E041E00E94B70C81E063E041E00E9464
:102D4000B70C80E067E041E00E94B70C80E066E0ED
:102D500041E00E94B70C80E065E041E00E94B70CC2
:102D600080E064E041E00E94B70C80E067E040E072
:102D70000E949B0D80E066E040E00E949B0D80E099
:102D800065E041E00E949B0D80E064E040E00E942D
:102D90009B0D81E063E041E00E949B0D80E090E0AC
:102DA000A0E8BFE3898F9A8FAB8FBC8F698D7A8D36
:102DB0008B8D9C8D20E030E04AE755E40E941F0295
:102DC000DC01CB018D8B9E8BAF8BB88F6D897E899B
:102DD0008F89988D20E030E040E85FE30E94250471
:102DE00088232CF481E090E09C8B8B8B3FC06D8915
:102DF0007E898F89988D20E03FEF4FE757E40E944E
:102E0000C50318164CF5698D7A8D8B8D9C8D20E04D
:102E100030E040E251E40E941F02DC01CB01BC0122
:102E2000CD010E944900DC01CB019C8B8B8B0FC034
:102E300080E991E09A8B898B89899A890197F1F7CA
:102E40009A8B898B8B899C8901979C8B8B8B8B8927
:102E50009C89009769F714C06D897E898F89988D48
:102E60000E944900DC01CB019C8B8B8B8B899C8958
:102E7000988B8F878F8598890197F1F7988B8F872B
:102E800081E063E040E00E949B0D80E090E0A0E0E4
:102E9000B0E48B879C87AD87BE876B857C858D85ED
:102EA0009E8520E030E04AE755E40E941F02DC01E5
:102EB000CB018F839887A987BA876F8178858985A9
:102EC0009A8520E030E040E85FE30E9425048823F3
:102ED0002CF481E090E09E838D833FC06F817885E4
:102EE00089859A8520E03FEF4FE757E40E94C503AC
:102EF00018164CF56B857C858D859E8520E030E02D
:102F000040E251E40E941F02DC01CB01BC01CD0173
:102F10000E944900DC01CB019E838D830FC080E9B4
:102F200091E09C838B838B819C810197F1F79C833B
:102F30008B838D819E8101979E838D838D819E8160
:102F4000009769F714C06F81788589859A850E94FA
:102F50004900DC01CB019E838D838D819E819A8304
:102F6000898389819A810197F1F79A83898381E026
:102F700061E040E00E949B0D88E20E943D1481E0E8
:102F800061E040E00E949B0D8FE00E943D1481E0D3
:102F900061E040E00E949B0D81E00E943D1481E0D1
:102FA00061E040E00E949B0D86E00E943D146C961B
:102FB0000FB6F894DEBF0FBECDBFCF91DF9108955D
:102FC000DF93CF930F92CDB7DEB7898381E061E0C5
:102FD00041E00E949B0D89810E943D140F90CF918A
:102FE000DF910895DF93CF930F92CDB7DEB789833A
:102FF00081E061E040E00E949B0D89810E943D14C8
:103000000F90CF91DF910895DF93CF9300D0CDB78C
:10301000DEB79A83898310C081E061E041E00E94BD
:103020009B0DE981FA81208189819A8101969A8399
:103030008983822F0E943D14E981FA81808188234F
:1030400059F70F900F90CF91DF910895DF93CF93B1
:10305000CDB7DEB781E061E040E00E949B0D81E0EA
:103060000E943D1480E80E94F217CF91DF910895ED
:10307000DF93CF93CDB7DEB788E10E94F217CF91EF
:10308000DF910895DF93CF93CDB7DEB78CE10E9437
:10309000F217CF91DF910895DF93CF9300D000D046
:1030A0000F92CDB7DEB79B838A836C834D838C816F
:1030B000882F90E00896880F991F880F991F880F16
:1030C000991F0E94F21719820EC08981282F30E0C3
:1030D0008A819B81FC01E20FF31F80810E94E0172F
:1030E00089818F5F89838981282F30E08D81882FA6
:1030F00090E0880F991F880F991F880F991F281734
:1031000039071CF30F900F900F900F900F90CF91F5
:10311000DF910895DF93CF930F92CDB7DEB7898308
:103120008981882F90E04096880F991F880F991FFA
:10313000880F991F0E94F2170F90CF91DF91089589
:10314000DF93CF930F92CDB7DEB7898389810E9439
:10315000E0170F90CF91DF910895DF93CF93CDB714
:10316000DEB72F970FB6F894DEBF0FBECDBF99879D
:1031700088872DB73EB73F872E878DB79EB79B8731
:103180008A87888599859D838C831B82888599850C
:10319000009789F480E30E94A01869C08C819D810A
:1031A0002AE030E0B9010E947623CB019D838C8315
:1031B0008B818F5F8B838C819D81009779F78B81C9
:1031C000882F90E02DB73EB7281B390B0FB6F89427
:1031D0003EBF0FBE2DBF8DB79EB701969D878C87D2
:1031E0008C859D8500969D878C872C853D853F83AA
:1031F0002E83888599859D838C838B818A8320C0CB
:103200008A81882F90E0FC0131978C819D812AE092
:1032100030E0B9010E947623282F205D8E819F81A6
:10322000E80FF91F20838C819D812AE030E0B901ED
:103230000E947623CB019D838C838A8181508A836F
:103240008A818823E9F619820EC08981282F30E00F
:103250008E819F81FC01E20FF31F80810E94A018E4
:1032600089818F5F898399818B81981770F38A8513
:103270009B850FB6F8949EBF0FBE8DBF2E853F85F0
:103280000FB6F8943EBF0FBE2DBF2F960FB6F89421
:10329000DEBF0FBECDBFCF91DF910895DF93CF93F7
:1032A000CDB7DEB72C970FB6F894DEBF0FBECDBFFB
:1032B00069877A878B879C8769857A858B859C85CA
:1032C0000E944900DC01CB018D839E83AF83B887C8
:1032D0008D819E810E94AD188EE20E94A0186D81A2
:1032E0007E818F8198850E94A9049B01AC0169852C
:1032F0007A858B859C850E94C101DC01CB01BC01D4
:10330000CD0120E030E04AE754E40E941F02DC01D6
:10331000CB01BC01CD010E944900DC01CB018983B6
:103320009A83AB83BC8389819A810E94AD182C96C5
:103330000FB6F894DEBF0FBECDBFCF91DF910895D9
:10334000DF93CF9300D0CDB7DEB789836A838981BD
:10335000823090F48A81813178F48981882329F43C
:103360008A8180580E94F21707C08981813021F438
:103370008A8180540E94F2170F900F90CF91DF91B5
:1033800008950F931F93DF93CF93CDB7DEB7C65C3D
:10339000D0400FB6F894DEBF0FBECDBF0E94881696
:1033A0000E94170B0E9463110E9435100E94871320
:1033B0000E942B119093C0018093BF0180E690E0A2
:1033C0000E94041881E060E00E94A01980E790E06C
:1033D0000E940418FE01EF53FF4F80E090E0AAEF37
:1033E000B4E480839183A283B3838E0103541F4F7F
:1033F000FE01EF53FF4F608171818281938120E054
:1034000030E04AE755E40E941F02DC01CB01F801DD
:1034100080839183A283B383FE01E354FF4F6081D5
:1034200071818281938120E030E040E85FE30E9477
:103430002504882344F4FE01E554FF4F81E090E029
:103440009183808364C0FE01E354FF4F60817181EA
:103450008281938120E03FEF4FE757E40E94C5034C
:1034600018160CF043C0FE01EF53FF4F60817181CD
:103470008281938120E030E040E251E40E941F020B
:10348000DC01CB018E0105541F4FBC01CD010E9410
:103490004900DC01CB01F801918380831FC0FE014C
:1034A000E754FF4F80E991E091838083FE01E75468
:1034B000FF4F808191810197F1F7FE01E754FF4FA3
:1034C00091838083DE01A554BF4FFE01E554FF4F79
:1034D00080819181019711969C938E93FE01E55412
:1034E000FF4F808191810097D1F627C08E0105544E
:1034F0001F4FFE01E354FF4F6081718182819381F0
:103500000E944900DC01CB01F80191838083DE0138
:10351000A954BF4FFE01E554FF4F808191818D93E7
:103520009C93FE01E954FF4F808191810197F1F74F
:10353000FE01E954FF4F918380831092BA010E94EB
:1035400026188091BA01282F30E0CB53DF4F398302
:103550002883C55CD040CB53DF4F88819981C55CFF
:10356000D0408130910509F44BC3CB53DF4FE88144
:10357000F981C55CD040E230F10554F4CB53DF4F04
:1035800028813981C55CD04021153105B1F0D7CFF4
:10359000CB53DF4F88819981C55CD0408230910543
:1035A00009F4A2C4CB53DF4FE881F981C55CD04058
:1035B000E330F10509F40CC6C2CF8CE790E00E941D
:1035C00004180E9473130E942B119093C0018093E2
:1035D000BF018091BF019091C0018932910508F02F
:1035E0000CC38091BF019091C001009709F405C3FD
:1035F0000E9422140E946813FE01ED54FF4F80E0E8
:1036000090E0AAE7B4E480839183A283B3838E0120
:1036100001551F4FFE01ED54FF4F60817181828182
:10362000938120E030E04AE755E40E941F02DC016C
:10363000CB01F80180839183A283B383FE01E1551E
:10364000FF4F608171818281938120E030E040E80A
:103650005FE30E942504882344F4FE01E355FF4FF5
:1036600081E090E09183808364C0FE01E155FF4FCB
:10367000608171818281938120E03FEF4FE757E4C1
:103680000E94C50318160CF043C0FE01ED54FF4F15
:10369000608171818281938120E030E040E251E4D9
:1036A0000E941F02DC01CB018E0103551F4FBC019C
:1036B000CD010E944900DC01CB01F8019183808398
:1036C0001FC0FE01E555FF4F80E991E091838083A3
:1036D000FE01E555FF4F808191810197F1F7FE01D1
:1036E000E555FF4F91838083DE01A355BF4FFE0157
:1036F000E355FF4F80819181019711969C938E93A2
:10370000FE01E355FF4F808191810097D1F627C0DC
:103710008E0103551F4FFE01E155FF4F60817181FE
:10372000828193810E944900DC01CB01F8019183E1
:103730008083DE01A755BF4FFE01E355FF4F808117
:1037400091818D939C93FE01E755FF4F808191817C
:103750000197F1F7FE01E755FF4F918380830E94A7
:103760002B119093BE018093BD01FE01EB55FF4FDD
:1037700080E090E0AAE7B4E480839183A283B383DE
:103780008E010F551F4FFE01EB55FF4F6081718178
:103790008281938120E030E04AE755E40E941F02D5
:1037A000DC01CB01F80180839183A283B383FE0106
:1037B000EF55FF4F608171818281938120E030E07D
:1037C00040E85FE30E942504882344F4FE01E156AB
:1037D000FF4F81E090E09183808364C0FE01EF554C
:1037E000FF4F608171818281938120E03FEF4FE73D
:1037F00057E40E94C50318160CF043C0FE01EB55B8
:10380000FF4F608171818281938120E030E040E24E
:1038100051E40E941F02DC01CB018E0101561F4FB3
:10382000BC01CD010E944900DC01CB01F80191836C
:1038300080831FC0FE01E356FF4F80E991E0918332
:103840008083FE01E356FF4F808191810197F1F75C
:10385000FE01E356FF4F91838083DE01A156BF4FE7
:10386000FE01E156FF4F80819181019711969C9353
:103870008E93FE01E156FF4F808191810097D1F632
:1038800027C08E0101561F4FFE01EF55FF4F60818B
:103890007181828193810E944900DC01CB01F80192
:1038A00091838083DE01A556BF4FFE01E156FF4F95
:1038B000808191818D939C93FE01E556FF4F80811D
:1038C00091810197F1F7FE01E556FF4F91838083C7
:1038D0000E945D13FE01E956FF4F80E090E0AAE7E9
:1038E000B4E480839183A283B3838E010D561F4F6E
:1038F000FE01E956FF4F608171818281938120E052
:1039000030E04AE755E40E941F02DC01CB01F801D8
:1039100080839183A283B383FE01ED56FF4F6081C4
:1039200071818281938120E030E040E85FE30E9472
:103930002504882344F4FE01EF56FF4F81E090E018
:103940009183808364C0FE01ED56FF4F60817181D9
:103950008281938120E03FEF4FE757E40E94C50347
:1039600018160CF043C0FE01E956FF4F60817181CB
:103970008281938120E030E040E251E40E941F0206
:10398000DC01CB018E010F561F4FBC01CD010E94FF
:103990004900DC01CB01F801918380831FC0FE0147
:1039A000E157FF4F80E991E091838083FE01E15769
:1039B000FF4F808191810197F1F7FE01E157FF4FA1
:1039C00091838083DE01AF56BF4FFE01EF56FF4F5C
:1039D00080819181019711969C938E93FE01EF5601
:1039E000FF4F808191810097D1F627C08E010F563D
:1039F0001F4FFE01ED56FF4F6081718182819381DF
:103A00000E944900DC01CB01F80191838083DE0133
:103A1000A357BF4FFE01EF56FF4F808191818D93D9
:103A20009C93FE01E357FF4F808191810197F1F74D
:103A3000FE01E357FF4F918380830E942B119093E7
:103A4000BC018093BB01FE01E757FF4F80E090E08F
:103A5000AAE7B4E480839183A283B3838E010B57DA
:103A60001F4FFE01E757FF4F608171818281938173
:103A700020E030E04AE755E40E941F02DC01CB0160
:103A8000F80180839183A283B383FE01EB57FF4F3C
:103A9000608171818281938120E030E040E85FE3C2
:103AA0000E942504882344F4FE01ED57FF4F81E076
:103AB00090E09183808364C0FE01EB57FF4F6081EB
:103AC00071818281938120E03FEF4FE757E40E94AC
:103AD000C50318160CF043C0FE01E757FF4F608185
:103AE00071818281938120E030E040E251E40E94C4
:103AF0001F02DC01CB018E010D571F4FBC01CD0110
:103B00000E944900DC01CB01F801918380831FC032
:103B1000FE01EF57FF4F80E991E091838083FE0122
:103B2000EF57FF4F808191810197F1F7FE01EF5729
:103B3000FF4F91838083DE01AD57BF4FFE01ED57EC
:103B4000FF4F80819181019711969C938E93FE0186
:103B5000ED57FF4F808191810097D1F628C08E01EB
:103B60000D571F4FFE01EB57FF4F6081718182811E
:103B700093810E944900DC01CB01F801918380838D
:103B8000DE01A158BF4FFE01ED57FF4F80819181AB
:103B900011969C938E93FE01E158FF4F8081918195
:103BA0000197F1F7FE01E158FF4F918380838091E7
:103BB000BD019091BE018932910530F48091BD0123
:103BC0009091BE01009721F481E08093BA01B7CCB7
:103BD0008091BB019091BC018932910530F48091B4
:103BE000BB019091BC01009721F482E08093BA015F
:103BF000A6CC83E08093BA01A2CC0E94B6139FCCDE
:103C000085E890E00E9404180E94EC13FE01E5583C
:103C1000FF4F80E090E0AAE7B4E480839183A28321
:103C2000B3838E0109581F4FFE01E558FF4F608195
:103C300071818281938120E030E04AE755E40E945F
:103C40001F02DC01CB01F80180839183A283B3833F
:103C5000FE01E958FF4F608171818281938120E0EC
:103C600030E040E85FE30E942504882344F4FE012D
:103C7000EB58FF4F81E090E09183808364C0FE01A8
:103C8000E958FF4F608171818281938120E03FEF8D
:103C90004FE757E40E94C50318160CF043C0FE011D
:103CA000E558FF4F608171818281938120E030E08F
:103CB00040E251E40E941F02DC01CB018E010B584F
:103CC0001F4FBC01CD010E944900DC01CB01F8016E
:103CD000918380831FC0FE01ED58FF4F80E991E082
:103CE00091838083FE01ED58FF4F80819181019780
:103CF000F1F7FE01ED58FF4F91838083DE01AB5851
:103D0000BF4FFE01EB58FF4F8081918101971196C3
:103D10009C938E93FE01EB58FF4F80819181009719
:103D2000D1F627C08E010B581F4FFE01E958FF4FF7
:103D300060817181828193810E944900DC01CB0105
:103D4000F80191838083DE01AF58BF4FFE01EB582D
:103D5000FF4F808191818D939C93FE01EF58FF4F1F
:103D6000808191810197F1F7FE01EF58FF4F918318
:103D700080830E9422140E947313FE01E359FF4FB7
:103D800080E090E0AAE7B4E480839183A283B383C8
:103D90008E0107591F4FFE01E359FF4F608171816A
:103DA0008281938120E030E04AE755E40E941F02BF
:103DB000DC01CB01F80180839183A283B383FE01F0
:103DC000E759FF4F608171818281938120E030E06B
:103DD00040E85FE30E942504882344F4FE01E9598A
:103DE000FF4F81E090E09183808364C0FE01E7593A
:103DF000FF4F608171818281938120E03FEF4FE727
:103E000057E40E94C50318160CF043C0FE01E359A5
:103E1000FF4F608171818281938120E030E040E238
:103E200051E40E941F02DC01CB018E0109591F4F92
:103E3000BC01CD010E944900DC01CB01F801918356
:103E400080831FC0FE01EB59FF4F80E991E0918311
:103E50008083FE01EB59FF4F808191810197F1F73B
:103E6000FE01EB59FF4F91838083DE01A959BF4FBB
:103E7000FE01E959FF4F80819181019711969C9332
:103E80008E93FE01E959FF4F808191810097D1F611
:103E900028C08E0109591F4FFE01E759FF4F60816D
:103EA0007181828193810E944900DC01CB01F8017C
:103EB00091838083DE01AD59BF4FFE01E959FF4F69
:103EC0008081918111969C938E93FE01ED59FF4F55
:103ED000808191810197F1F7FE01ED59FF4F9183A8
:103EE00080831092BA012BCB8BE890E00E940418DB
:103EF0000E940714FE01E15AFF4F80E090E0AAE71C
:103F0000B4E480839183A283B3838E01055A1F4F4B
:103F1000FE01E15AFF4F608171818281938120E02F
:103F200030E04AE755E40E941F02DC01CB01F801B2
:103F300080839183A283B383FE01E55AFF4F6081A2
:103F400071818281938120E030E040E85FE30E944C
:103F50002504882344F4FE01E75AFF4F81E090E0F6
:103F60009183808364C0FE01E55AFF4F60817181B7
:103F70008281938120E03FEF4FE757E40E94C50321
:103F800018160CF043C0FE01E15AFF4F60817181A9
:103F90008281938120E030E040E251E40E941F02E0
:103FA000DC01CB018E01075A1F4FBC01CD010E94DD
:103FB0004900DC01CB01F801918380831FC0FE0121
:103FC000E95AFF4F80E991E091838083FE01E95A2D
:103FD000FF4F808191810197F1F7FE01E95AFF4F70
:103FE00091838083DE01A75ABF4FFE01E75AFF4F3E
:103FF00080819181019711969C938E93FE01E75ADF
:10400000FF4F808191810097D1F627C08E01075A1A
:104010001F4FFE01E55AFF4F6081718182819381BC
:104020000E944900DC01CB01F80191838083DE010D
:10403000AB5ABF4FFE01E75AFF4F808191818D93AC
:104040009C93FE01EB5AFF4F808191810197F1F71C
:10405000FE01EB5AFF4F918380830E9422140E943D
:104060007313FE01EF5AFF4F80E090E0AAE7B4E43B
:1040700080839183A283B3838E01035B1F4FFE0174
:10408000EF5AFF4F608171818281938120E030E09F
:104090004AE755E40E941F02DC01CB01F80180834E
:1040A0009183A283B383FE01E35BFF4F6081718143
:1040B0008281938120E030E040E85FE30E942504A4
:1040C000882344F4FE01E55BFF4F81E090E091839B
:1040D000808364C0FE01E35BFF4F60817181828158
:1040E000938120E03FEF4FE757E40E94C503181685
:1040F0000CF043C0FE01EF5AFF4F60817181828155
:10410000938120E030E040E251E40E941F02DC0194
:10411000CB018E01055B1F4FBC01CD010E94490000
:10412000DC01CB01F801918380831FC0FE01E75BB6
:10413000FF4F80E991E091838083FE01E75BFF4FB1
:10414000808191810197F1F7FE01E75BFF4F918339
:104150008083DE01A55BBF4FFE01E55BFF4F8081E1
:104160009181019711969C938E93FE01E55BFF4F21
:10417000808191810097D1F628C08E01055B1F4F89
:10418000FE01E35BFF4F60817181828193810E9418
:104190004900DC01CB01F80191838083DE01A95B3A
:1041A000BF4FFE01E55BFF4F8081918111969C938B
:1041B0008E93FE01E95BFF4F808191810197F1F7BA
:1041C000FE01E95BFF4F918380831092BA01B7C96A
:1041D00080E990E00E9404180E94D113FE01ED5B7B
:1041E000FF4F80E090E0AAE7B4E480839183A2834C
:1041F000B3838E01015C1F4FFE01ED5BFF4F6081B9
:1042000071818281938120E030E04AE755E40E9489
:104210001F02DC01CB01F80180839183A283B38369
:10422000FE01FF96608171818281938120E030E000
:1042300040E85FE30E94250488232CF481E090E0AD
:104240009EAF8DAF46C0FE01FF9660817181828175
:10425000938120E03FEF4FE757E40E94C503181613
:1042600064F5FE01ED5BFF4F608171818281938176
:1042700020E030E040E251E40E941F02DC01CB016B
:10428000BC01CD010E944900DC01CB019EAF8DAF86
:104290000FC080E991E09CAF8BAF8BAD9CAD0197D7
:1042A000F1F79CAF8BAF8DAD9EAD01979EAF8DAFFB
:1042B0008DAD9EAD009769F716C0FE01FF96608137
:1042C0007181828193810E944900DC01CB019EAF04
:1042D0008DAF8DAD9EAD9AAF89AF89AD9AAD019787
:1042E000F1F79AAF89AF0E9422140E94681380E010
:1042F00090E0AAE7B4E48DAB9EABAFABB8AF6DA9CD
:104300007EA98FA998AD20E030E04AE755E40E94ED
:104310001F02DC01CB0189AB9AABABABBCAB69A98B
:104320007AA98BA99CA920E030E040E85FE30E94D5
:10433000250488232CF481E090E098AB8FA73FC040
:1043400069A97AA98BA99CA920E03FEF4FE757E420
:104350000E94C50318164CF56DA97EA98FA998ADCA
:1043600020E030E040E251E40E941F02DC01CB017A
:10437000BC01CD010E944900DC01CB0198AB8FA7A5
:104380000FC080E991E09EA78DA78DA59EA50197FE
:10439000F1F79EA78DA78FA598A9019798AB8FA736
:1043A0008FA598A9009769F714C069A97AA98BA964
:1043B0009CA90E944900DC01CB0198AB8FA78FA577
:1043C00098A99CA78BA78BA59CA50197F1F79CA703
:1043D0008BA70E942B119093BE018093BD0180E0BA
:1043E00090E0AAE7B4E48FA398A7A9A7BAA76FA102
:1043F00078A589A59AA520E030E04AE755E40E9417
:104400001F02DC01CB018BA39CA3ADA3BEA36BA1B8
:104410007CA18DA19EA120E030E040E85FE30E94F6
:10442000250488232CF481E090E09AA389A33FC05F
:104430006BA17CA18DA19EA120E03FEF4FE757E447
:104440000E94C50318164CF56FA178A589A59AA5F9
:1044500020E030E040E251E40E941F02DC01CB0189
:10446000BC01CD010E944900DC01CB019AA389A3C4
:104470000FC080E991E098A38F8F8F8D98A101974D
:10448000F1F798A38F8F89A19AA101979AA389A385
:1044900089A19AA1009769F714C06BA17CA18DA195
:1044A0009EA10E944900DC01CB019AA389A389A1A6
:1044B0009AA19E8F8D8F8D8D9E8D0197F1F79E8F86
:1044C0008D8F0E945D1380E090E0AAE7B4E4898FAD
:1044D0009A8FAB8FBC8F698D7A8D8B8D9C8D20E0F0
:1044E00030E04AE755E40E941F02DC01CB018D8BCE
:1044F0009E8BAF8BB88F6D897E898F89988D20E0D8
:1045000030E040E85FE30E94250488232CF481E03A
:1045100090E09C8B8B8B3FC06D897E898F89988DB5
:1045200020E03FEF4FE757E40E94C50318164CF513
:10453000698D7A8D8B8D9C8D20E030E040E251E4D6
:104540000E941F02DC01CB01BC01CD010E94490089
:10455000DC01CB019C8B8B8B0FC080E991E09A8BA7
:10456000898B89899A890197F1F79A8B898B8B8935
:104570009C8901979C8B8B8B8B899C89009769F711
:1045800014C06D897E898F89988D0E944900DC0155
:10459000CB019C8B8B8B8B899C89988B8F878F858C
:1045A00098890197F1F7988B8F870E942B11909330
:1045B000BC018093BB0180E090E0AAE7B4E48B8764
:1045C0009C87AD87BE876B857C858D859E8520E029
:1045D00030E04AE755E40E941F02DC01CB018F83E3
:1045E0009887A987BA876F81788589859A8520E021
:1045F00030E040E85FE30E94250488232CF481E04A
:1046000090E09E838D833FC06F81788589859A85F0
:1046100020E03FEF4FE757E40E94C50318164CF522
:104620006B857C858D859E8520E030E040E251E4FD
:104630000E941F02DC01CB01BC01CD010E94490098
:10464000DC01CB019E838D830FC080E991E09C83C8
:104650008B838B819C810197F1F79C838B838D8168
:104660009E8101979E838D838D819E81009769F73E
:1046700014C06F81788589859A850E944900DC0184
:10468000CB019E838D838D819E819A8389838981CD
:104690009A810197F1F79A8389838091BD01909166
:1046A000BE018932910530F48091BD019091BE0127
:1046B000009729F481E08093BA010C949F1A8091AD
:1046C000BB019091BC018932910530F48091BB010E
:1046D0009091BC01009729F482E08093BA010C9478
:1046E0009F1A83E08093BA010C949F1A97FB092EBE
:1046F00007260AD077FD04D027D006D000201AF470
:10470000709561957F4F0895F6F7909581959F4F2D
:10471000089597FB092E05260ED057FD04D028D00A
:104720000AD0001C38F450954095309521953F4FA4
:104730004F4F5F4F0895F6F790958095709561956E
:104740007F4F8F4F9F4F0895AA1BBB1B51E107C09E
:10475000AA1FBB1FA617B70710F0A61BB70B881F11
:10476000991F5A95A9F780959095BC01CD010895A0
:10477000A1E21A2EAA1BBB1BFD010DC0AA1FBB1F65
:10478000EE1FFF1FA217B307E407F50720F0A21BD7
:10479000B30BE40BF50B661F771F881F991F1A9444
:1047A00069F760957095809590959B01AC01BD016E
:1047B000CF0108952F923F924F925F926F927F9216
:1047C0008F929F92AF92BF92CF92DF92EF92FF9221
:1047D0000F931F93CF93DF93CDB7DEB7CA1BDB0BCD
:1047E0000FB6F894DEBF0FBECDBF09942A88398872
:1047F00048885F846E847D848C849B84AA84B98479
:10480000C884DF80EE80FD800C811B81AA81B98184
:10481000CE0FD11D0FB6F894DEBF0FBECDBFED0198
:1048200008953BD080F09F3740F491110EF44DC0B5
:1048300060E070E080E89FE3089526F01B16611D9C
:10484000711D811D01C01BC0882371F4772321F0E5
:104850009850872B762F07C0662311F499270DC037
:104860009051862B70E060E02AF09A95660F771FD2
:10487000881FDAF7880F9695879597F908959F3FD7
:1048800031F0915020F4879577956795B795880F0B
:10489000911D9695879597F9089525D0A0F0BEE7CC
:1048A000B91788F4BB279F3860F41616B11D672F1F
:1048B000782F8827985FF7CF869577956795B11DF4
:1048C00093959639C8F30895E894BB276627772710
:1048D000CB0197F9089557FD9058440F551F59F093
:1048E0005F3F71F04795880F97FB991F61F09F3FDD
:1048F00079F087950895121613061406551FF2CF06
:104900004695F1DF08C0161617061806991FF1CF55
:0E49100086957105610508940895F894FFCF0F
:10491E004175746F6E6F6D6F7573206361722000D9
:10492E002020202020204953204F4E00464F525722
:10493E0041524420005249474854004C45465400C9
:10494E004241434B5741524400000000000000001A
:10495E00000001020203030303040404040404041C
:10496E0004050505050505050505050505050505EA
:10497E0005060606060606060606060606060606CA
:10498E0006060606060606060606060606060606B9
:10499E00060707070707070707070707070707079A
:1049AE000707070707070707070707070707070789
:1049BE000707070707070707070707070707070779
:1049CE000707070707070707070707070707070769
:1049DE00070808080808080808080808080808084A
:1049EE000808080808080808080808080808080839
:1049FE000808080808080808080808080808080829
:104A0E000808080808080808080808080808080818
:104A1E000808080808080808080808080808080808
:104A2E0008080808080808080808080808080808F8
:104A3E0008080808080808080808080808080808E8
:104A4E0008080808080808080808080808080808D8
:024A5E0008004E
:00000001FF
